{
  "transactions": [
    {
      "hash": "0xfa2a9acc201032a6c33129e409f3a55c0d4c417b5731e08eab39e7952d2b77af",
      "transactionType": "CALL",
      "contractName": null,
      "contractAddress": "0x0bef4676900f89ce8d31f4255e3f506f32acd4cb",
      "function": "bridgeSingleTokens(bytes32,address[])",
      "arguments": [
        "0x14a40bc60f69c582d9e664a2a03765b1dd6182296c42ef7eb2d71eefcd7825c4",
        "[0x15f05Cd06fa979b311B5282724A9A8f1b4B9532A, 0x235A2ac113014F9dcb8aBA6577F20290832dDEFd]"
      ],
      "transaction": {
        "from": "0x235a2ac113014f9dcb8aba6577f20290832ddefd",
        "to": "0x0bef4676900f89ce8d31f4255e3f506f32acd4cb",
        "gas": "0xa9d6b",
        "value": "0x6f05b59d3b20000",
        "input": "0x563d355614a40bc60f69c582d9e664a2a03765b1dd6182296c42ef7eb2d71eefcd7825c40000000000000000000000000000000000000000000000000000000000000040000000000000000000000000000000000000000000000000000000000000000200000000000000000000000015f05cd06fa979b311b5282724a9a8f1b4b9532a000000000000000000000000235a2ac113014f9dcb8aba6577f20290832ddefd",
        "nonce": "0x23a",
        "chainId": "0xaa36a7"
      },
      "additionalContracts": [],
      "isFixedGasLimit": false
    }
  ],
  "receipts": [
    {
      "status": "0x1",
      "cumulativeGasUsed": "0xc099d7",
      "logs": [
        {
          "address": "0x2f6f07cdcf3588944bf4c42ac74ff24bf56e7590",
          "topics": [
            "0x8c5be1e5ebec7d5bd14f71427d1e84f3dd0314c0f7b2291e5b200ac8c7c3b925",
            "0x0000000000000000000000000bef4676900f89ce8d31f4255e3f506f32acd4cb",
            "0x0000000000000000000000004985b8fcea3659fd801a5b857da1d00e985863f0"
          ],
          "data": "0x000000000000000000000000000000000000000000000000000000037e11d600",
          "blockHash": "0x0556c54d00330cf86436119bf2474436b71102ec6d547eca4245dd113985c6b2",
          "blockNumber": "0x722d81",
          "transactionHash": "0xfa2a9acc201032a6c33129e409f3a55c0d4c417b5731e08eab39e7952d2b77af",
          "transactionIndex": "0x61",
          "logIndex": "0x99",
          "removed": false
        },
        {
          "address": "0x2f6f07cdcf3588944bf4c42ac74ff24bf56e7590",
          "topics": [
            "0xddf252ad1be2c89b69c2b068fc378daa952ba7f163c4a11628f55a4df523b3ef",
            "0x0000000000000000000000000bef4676900f89ce8d31f4255e3f506f32acd4cb",
            "0x0000000000000000000000004985b8fcea3659fd801a5b857da1d00e985863f0"
          ],
          "data": "0x000000000000000000000000000000000000000000000000000000037e11d600",
          "blockHash": "0x0556c54d00330cf86436119bf2474436b71102ec6d547eca4245dd113985c6b2",
          "blockNumber": "0x722d81",
          "transactionHash": "0xfa2a9acc201032a6c33129e409f3a55c0d4c417b5731e08eab39e7952d2b77af",
          "transactionIndex": "0x61",
          "logIndex": "0x9a",
          "removed": false
        },
        {
          "address": "0x2f6f07cdcf3588944bf4c42ac74ff24bf56e7590",
          "topics": [
            "0x8c5be1e5ebec7d5bd14f71427d1e84f3dd0314c0f7b2291e5b200ac8c7c3b925",
            "0x0000000000000000000000000bef4676900f89ce8d31f4255e3f506f32acd4cb",
            "0x0000000000000000000000004985b8fcea3659fd801a5b857da1d00e985863f0"
          ],
          "data": "0x0000000000000000000000000000000000000000000000000000000000000000",
          "blockHash": "0x0556c54d00330cf86436119bf2474436b71102ec6d547eca4245dd113985c6b2",
          "blockNumber": "0x722d81",
          "transactionHash": "0xfa2a9acc201032a6c33129e409f3a55c0d4c417b5731e08eab39e7952d2b77af",
          "transactionIndex": "0x61",
          "logIndex": "0x9b",
          "removed": false
        },
        {
          "address": "0xcc1ae8cf5d3904cef3360a9532b477529b177cce",
          "topics": [
            "0x61ed099e74a97a1d7f8bb0952a88ca8b7b8ebd00c126ea04671f92a81213318a"
          ],
          "data": "0x000000000000000000000000718b92b5cb0a5552039b593faf724d182a881eda00000000000000000000000000000000000000000000000000003bf0a3a9358d",
          "blockHash": "0x0556c54d00330cf86436119bf2474436b71102ec6d547eca4245dd113985c6b2",
          "blockNumber": "0x722d81",
          "transactionHash": "0xfa2a9acc201032a6c33129e409f3a55c0d4c417b5731e08eab39e7952d2b77af",
          "transactionIndex": "0x61",
          "logIndex": "0x9c",
          "removed": false
        },
        {
          "address": "0xcc1ae8cf5d3904cef3360a9532b477529b177cce",
          "topics": [
            "0x07ea52d82345d6e838192107d8fd7123d9c2ec8e916cd0aad13fd2b60db24644"
          ],
          "data": "0x000000000000000000000000000000000000000000000000000000000000006000000000000000000000000000000000000000000000000000000000000000a000000000000000000000000000000000000000000000000000000000000000c000000000000000000000000000000000000000000000000000000000000000010000000000000000000000008eebf8b423b73bfca51a1db4b7354aa0bfca919300000000000000000000000000000000000000000000000000000000000000000000000000000000000000000000000000000000000000000000000000000001000000000000000000000000000000000000000000000000000003591bdf6fd3",
          "blockHash": "0x0556c54d00330cf86436119bf2474436b71102ec6d547eca4245dd113985c6b2",
          "blockNumber": "0x722d81",
          "transactionHash": "0xfa2a9acc201032a6c33129e409f3a55c0d4c417b5731e08eab39e7952d2b77af",
          "transactionIndex": "0x61",
          "logIndex": "0x9d",
          "removed": false
        },
        {
          "address": "0x6edce65403992e310a62460808c4b910d972f10f",
          "topics": [
            "0x1ab700d4ced0c005b164c0f789fd09fcbb0156d4c2041b8a3bfbcd961cd1567f"
          ],
          "data": "0x000000000000000000000000000000000000000000000000000000000000006000000000000000000000000000000000000000000000000000000000000001c0000000000000000000000000cc1ae8cf5d3904cef3360a9532b477529b177cce000000000000000000000000000000000000000000000000000000000000013d01000000000000001900009ce1000000000000000000000000fb112f7fc5725de9f630abb23e4916d6fd7526d300009d9a000000000000000000000000880f614c729c622c727f3625b263a36c0b89167f02ded8e17f0110ef764a142aa4ead96848f9be2317796ee9e7edb8171d430fa8010001000000000000000000000000068b4462e85edbd4d7e3cbbea8f42886f5a93822000000037e11d6000000000000000000000000000bef4676900f89ce8d31f4255e3f506f32acd4cb14a40bc60f69c582d9e664a2a03765b1dd6182296c42ef7eb2d71eefcd7825c4000000000000000000000000000000000000000000000000000000000000000d0115f05cd06fa979b311b5282724a9a8f1b4b9532a0000000000000002540be400235a2ac113014f9dcb8aba6577f20290832ddefd00000000000000012a05f200000000000000000000000000000000000000000000000000000000000000000000003c000301001101000000000000000000000000000249f00100230300000000000000000000000000000003df040000000000000000000000000000000000000000",
          "blockHash": "0x0556c54d00330cf86436119bf2474436b71102ec6d547eca4245dd113985c6b2",
          "blockNumber": "0x722d81",
          "transactionHash": "0xfa2a9acc201032a6c33129e409f3a55c0d4c417b5731e08eab39e7952d2b77af",
          "transactionIndex": "0x61",
          "logIndex": "0x9e",
          "removed": false
        },
        {
          "address": "0x4985b8fcea3659fd801a5b857da1d00e985863f0",
          "topics": [
            "0x85496b760a4b7f8d66384b9df21b381f5d1b1e79f229a47aaf4c232edc2fe59a",
            "0x02ded8e17f0110ef764a142aa4ead96848f9be2317796ee9e7edb8171d430fa8",
            "0x0000000000000000000000000bef4676900f89ce8d31f4255e3f506f32acd4cb"
          ],
          "data": "0x0000000000000000000000000000000000000000000000000000000000009d9a000000000000000000000000000000000000000000000000000000037e11d600000000000000000000000000000000000000000000000000000000037e11d600",
          "blockHash": "0x0556c54d00330cf86436119bf2474436b71102ec6d547eca4245dd113985c6b2",
          "blockNumber": "0x722d81",
          "transactionHash": "0xfa2a9acc201032a6c33129e409f3a55c0d4c417b5731e08eab39e7952d2b77af",
          "transactionIndex": "0x61",
          "logIndex": "0x9f",
          "removed": false
        },
        {
          "address": "0x0bef4676900f89ce8d31f4255e3f506f32acd4cb",
          "topics": [
            "0xdbb8a69061e830f3b11aa85c5a39080764f206e8b3a588aacb3242a1733392ef",
            "0x14a40bc60f69c582d9e664a2a03765b1dd6182296c42ef7eb2d71eefcd7825c4",
            "0x000000000000000000000000000000000000000000000000000000000000000d"
          ],
          "data": "0x000000000000000000000000000000000000000000000000000000000000008002ded8e17f0110ef764a142aa4ead96848f9be2317796ee9e7edb8171d430fa80000000000000000000000000000000000000000000000000000000000000019000000000000000000000000000000000000000000000000000000037e11d600000000000000000000000000000000000000000000000000000000000000000200000000000000000000000015f05cd06fa979b311b5282724a9a8f1b4b9532a000000000000000000000000235a2ac113014f9dcb8aba6577f20290832ddefd",
          "blockHash": "0x0556c54d00330cf86436119bf2474436b71102ec6d547eca4245dd113985c6b2",
          "blockNumber": "0x722d81",
          "transactionHash": "0xfa2a9acc201032a6c33129e409f3a55c0d4c417b5731e08eab39e7952d2b77af",
          "transactionIndex": "0x61",
          "logIndex": "0xa0",
          "removed": false
        }
      ],
      "logsBloom": "0x000000004000000000600000000000020000000000000000000000000001000000000000000000002000000010000000000000000000008000000000002000000000020002000000000000080200000000020000040000000000000000000000000000000000000082000000000000000000010400000100020010100000000000000000800000a0000000080000000000000000000000000000000000000000020000008000000000100000000000000000000200400000000441000000000000400002000000000000000080000000000080080000000000000000000800020010040000000000000040000004002000000000008000000000000800000020",
      "type": "0x2",
      "transactionHash": "0xfa2a9acc201032a6c33129e409f3a55c0d4c417b5731e08eab39e7952d2b77af",
      "transactionIndex": "0x61",
      "blockHash": "0x0556c54d00330cf86436119bf2474436b71102ec6d547eca4245dd113985c6b2",
      "blockNumber": "0x722d81",
      "gasUsed": "0x74211",
      "effectiveGasPrice": "0x4d4d8cf5d",
      "from": "0x235a2ac113014f9dcb8aba6577f20290832ddefd",
      "to": "0x0bef4676900f89ce8d31f4255e3f506f32acd4cb",
      "contractAddress": null
    }
  ],
  "libraries": [],
  "pending": [],
  "returns": {},
  "timestamp": 1736774414,
  "chain": 11155111,
  "commit": "fb57ca9"
}